:060000000A128A1100291A
:10000800F000030EF1000B180D20710E830070082C
:0E0018000900861D850A861F85030B1008004F
:1002000007210E211E212721031383120629031320
:1002100083160F178F120F120F140800031783167F
:1002200088018901031383168501861586178113BA
:100230009515951703138312850108000313831680
:10024000961596170313831206080B100800031364
:0A02500083128B178B150B100800AA
:04400E00C430FF3F7C
:00000001FF
