:060000000A128A1100291A
:10000800F000030EF1000B1916200B181020710ECA
:100018008300F00E700E0900861D850A861F850371
:100028000B10080003138312B23081000B11A00AD1
:0E0038002008323C031D2228A001870A080080
:1002000009211021332122212B21A0010313831264
:100210000829031383160F178F160F120F140800E7
:10022000031783168801890103138316850187014B
:10023000861586178113951595170313831285016B
:10024000870108000313831696159617031383126C
:1002500006080B100800031383128B178B150B1065
:100260008B160B11080003138316811281110115DF
:100270008114011403138312B23081000B110800A2
:04400E00C430FF3F7C
:00000001FF
