:060000000A128A1100291A
:10000800F000030EF1000B1916200B181020710ECA
:100018008300F00E700E0900861D850A861F850371
:100028000B10080003138312B23081000B11A00AD1
:100038002008323C031921200800A001A10A210848
:100048000022880021080A3C03192B200800A1017E
:10005800A20A2208002287002208063C031D38282D
:0A006800A2013F308700A10108004B
:100200000B211221372126212F21A001A101A201BA
:10021000031383120A29031383160F178F160F1265
:100220000F1408000317831688018901031383162E
:100230008501870188018615861781139515951705
:1002400003138312850187018801080003138316B5
:10025000961596170313831206080B100800031354
:1002600083128B178B150B108B160B1108000313C1
:100270008316811281110115811401140313831255
:08028000B23081000B110800EF
:100400008A018A140F3982073F3406345B344F3433
:1004100066346D347D3407347F346F343F347C343C
:0804200039345E347934713483
:04400E00C430FF3F7C
:00000001FF
